:020000040000FA
:040000000000622872
:040004000034003490
:08000800C830A000A00B06287F
:100010000800E730A0000430A100A00B0D28A10BC0
:100020000D2808000F30A0002830A100A00B1628D2
:10003000A10B1628080083120313861604208612CB
:1000400008000F39A3000608F039230486001B209E
:1000500004200800A400240E83120313061221209A
:100060002408061221200800A400240E8312031382
:100070000616212024082120080083160313860178
:1000800083120313122006120330212009201B20A3
:1000900004201B20042006120230212004202830D6
:1000A0002A2010302A2001302A20092006302A2058
:1000B0000D302A2008008030A508031DC030260717
:1000C0002A2008003D2041303420203034204230A6
:1000D000342020303420433034200130A50000305B
:0600E000A6005B2072285F
:00000001FF
