:020000040000FA
:1000000040207328C830A000A00B04280800E73067
:10001000A0000430A100192008000F30A0002830F3
:10002000A10019200800FF30A000FF30A100192016
:100030000800A00B1928A10B19280800831203132C
:1000400086160220861208000F39A3000608F03930
:10005000230486001E2002200800A400240E831220
:100060000313061224202408061224200800A400EA
:10007000240E8312031306162420240824200800CB
:1000800083160313F03088008312031383160313BF
:1000900086010F3088008312031308160D20061204
:1000A0000330242007201E2002201E2002200612DA
:1000B00002302420022028302D2010302D20013045
:1000C0002D20072006302D200D302D208312031304
:1000D00081309F008316031380309F008316031323
:1000E000FF308500080001302D20831203131F15F7
:1000F00013201F1979280310831203139E0C8316F3
:1001000003139E0C1E088312AF002F08CD3C031C66
:10011000732837302F02031893282D3037202F08EB
:10012000373CAF009728AF002B3037202F08A9208D
:1001300030302C07372030302B07372030302A075B
:10014000372020303720B03037204330372013207D
:100150007328AE00AC01AB01AA0164302E02031C6F
:10016000B428AC0AAE00AD280A302E02031CBB280E
:0C017000AB0AAE00B4282E08AA0008005C
:04017C000034003417
:00000001FF
