:020000040000FA
:1000000000005E285320532053202508A300260813
:10001000A40053202708A5002808A6005320A70CF9
:1000200008005320532053202508A30053202608FE
:10003000A40053202708A50053202808A600532019
:10004000A70D08005320532053202508A300532058
:100050002608A40053202708A50053202808A6003E
:100060005320A80D08005320532053202508A30037
:1000700053202608A40053202708A5005320280851
:10008000A6005320A80C08008316031306309F0017
:100090000F308500E0308700803086008312031324
:1000A000850186018701E730A0000430A100A00B84
:1000B0005A28A10B57280000000008000830A300B0
:1000C0000130A4000830A5000230A6000830A700C7
:1000D0000430A80044202308860024088700532009
:1000E0002508860026088700532027088600280850
:1000F00087005320051C0220851C1120051D22208D
:06010000851D33206B2871
:04010600003400348D
:00000001FF
