:020000040000FA
:0400000000005D2877
:040004000034003490
:08000800831203130C10DB301E
:100010008E000B308F00A20A02302202031D272817
:100020000311A201A30AA30A0A302302031D1B28FD
:100030000311A40AA30106302402031D272803117B
:1000400000302302031D27280311A301A401090086
:10005000E730A0000430A100A00B2F28A10B2C2812
:1000600000000000080082073F3406345B344F3440
:1000700066346D347D3407347F346F348312031358
:10008000C0308B00831203133130900083120313AE
:100090000C10831603130C14831603138601063009
:1000A0009F003C3085008312031386018501DB30FD
:1000B0008E000B308F00A20108003E200030A3000C
:1000C0000030A40002308500230833208600282059
:0E00D000013085002408332086002820622895
:02400E00313F40
:00000001FF
