:020000040000FA
:0400000000001528BF
:040004000034003490
:080008008316031306309F006C
:100010003030850083120313850108008316031313
:100020008601831203138601080004200E20051A9E
:1000300029280000851A1E280000172883120313A0
:10004000051E232829283420860A031D2028850A16
:10005000202883120313851E2E281E283420860391
:10006000031D2B2885032B280830A0002F30A1006A
:100070000330A200A00B3D28A10B3F28A20B3A2879
:08008000000000000000080070
:00000001FF
