:020000040000FA
:10000000B001B101B201B301B501A701A8014B20B4
:100010007928C830A000A00B0B280800E730A0000A
:100020000430A100A00B1228A10B122808000F30E9
:10003000A0002830A100A00B1B28A10B1B28080042
:10004000FF30A000FF30A100A00B2428A10B242822
:1000500008008312031386160920861208000F3940
:10006000A3000608F039230486002920092008008F
:10007000A400240E8312031306122F202408061254
:100080002F200800A400240E8312031306162F202D
:1000900024082F20080083160313F03088008312F1
:1000A00003138316031386010F3088008312031392
:1000B00008161720061203302F200E2029200920B1
:1000C00029200920061202302F200920283038204C
:1000D00010303820013038200E20063038200D3006
:1000E000382008008030A508031DC03026073820BE
:1000F0000800081888208818912008199A20881963
:10010000A320881F8628103088007928880D792838
:10011000081AE420881AEA20081BF020881B1F21F7
:100120000800081AD220881AD820081BDE20881B55
:1001300017210800081AC020881AC620081BCC20E6
:10014000881B0F210800081A2721881ABA20081BCB
:100150002F21881B07210800B001B101B201B501B0
:10016000B3010800B3003108B2003008B100330811
:10017000B00008002020303042200030B2200800BB
:100180002020313042200130B220080020203230BF
:1001900042200230B22008002020333042200330B9
:1001A000B22008002020343042200430B220080061
:1001B0002020353042200530B22008002020363083
:1001C00042200630B220080020203730422007307D
:1001D000B22008002020383042200830B220080029
:1001E0002020393042200930B22008000A30B507FB
:1001F000B10BF6283508B100B5016430B507B20B74
:10020000FD283108B5073008B5073508080020205B
:100210002B304220F620A700AC2029140800202013
:100220002D304220F620A700AC20A9140800202081
:100230002A304220F620A700AC20291508002020F3
:100240002B304220F620A700AC20A9150800202062
:10025000AC20A90106120130382009200800202016
:10026000F620A80029184921A9184D212919512142
:10027000A9195621A901AC205D21C03038203030A9
:1002800032074220303031074220303030074220E0
:10029000080027082807B500080027082802B5002D
:1002A00008002708B507A80B5129080028082702CD
:1002B000031808002830B50A562964303502031C9B
:1002C0006429B20AB5005D290A303502031C6B2986
:0C02D000B10AB50064293508B000080030
:0402DC0000340034B6
:00000001FF
